:020000040800F2
:100000009007002089010008FB0E0008F30E00088D
:10001000F70E00083902000809120008000000006D
:10002000000000000000000000000000290F000890
:100030003D02000800000000FD0E0008810F0008CE
:10004000A3010008A3010008A3010008A301000800
:10005000A3010008A3010008A3010008A3010008F0
:10006000A3010008A3010008A3010008A3010008E0
:10007000A3010008A3010008A3010008A3010008D0
:10008000A3010008A3010008A3010008A3010008C0
:10009000A3010008A3010008A3010008A3010008B0
:1000A000A3010008A3010008A3010008A3010008A0
:1000B000A3010008A3010008A3010008A301000890
:1000C000A3010008A3010008A3010008A301000880
:1000D000A3010008C9110008A3010008A30100083A
:1000E000A3010008A3010008A301000800F002F822
:1000F00000F03AF80AA090E8000C82448344AAF188
:100100000107DA4501D100F02FF8AFF2090EBAE885
:100110000F0013F0010F18BFFB1A43F0010318473B
:100120007C1100009C110000103A24BF78C878C1EF
:10013000FAD8520724BF30C830C144BF04680C60ED
:10014000704700000023002400250026103A28BF35
:1001500078C1FBD8520728BF30C148BF0B60704739
:100160001FB51FBD10B510BD00F033F81146FFF7E5
:10017000F7FF01F073F800F051F803B4FFF7F2FF56
:1001800003BC01F05FF800000948804709480047B8
:10019000FEE7FEE7FEE7FEE7FEE7FEE7FEE7FEE737
:1001A000FEE7FEE704480549054A064B7047000094
:1001B000890F0008ED000008900100209007002042
:1001C00090030020900300207047704770477047ED
:1001D0007047754600F02CF8AE4605006946534658
:1001E00020F00700854618B020B5FFF7DBFFBDE81B
:1001F00020404FF000064FF000074FF000084FF08E
:10020000000B21F00701AC46ACE8C009ACE8C0091E
:10021000ACE8C009ACE8C0098D46704710B504468B
:10022000AFF300802046BDE81040FFF7A6BF0000F6
:10023000004870472C01002000BFFEE770470146D0
:10024000002291F82100022808D00420886300BF12
:10025000002081F8200000BF012070470868006876
:1002600020F00E000B6818600868006820F001009C
:100270000B68186091F8403001209840CB6B5860B3
:10028000012081F8210000BF002081F8200000BF7C
:100290001046E2E770B50446002594F821000228D4
:1002A00003D00420A063012548E02068006820F006
:1002B0000E00216808602068006820F001002168B5
:1002C00008601F492068884201D1012026E01C49AE
:1002D00014312068884201D110201FE018492831CC
:1002E0002068884201D1801518E015493C3120680A
:1002F000884201D1801411E01149503120688842B0
:1003000002D14FF4803009E00D4964312068884201
:1003100002D14FF4801001E04FF080700849083995
:100320004860012084F8210000BF002084F82000EC
:1003300000BF606B10B12046616B8847284670BDD6
:1003400008000240014800687047000010000020CB
:100350000348006803490978084401490860704768
:10036000100000201800002010B50848006840F078
:10037000100006490860032000F070F80F2000F01C
:1003800007F800F02BF8002010BD0000002002400C
:1003900070B504460E4800784FF47A71B1FBF0F066
:1003A0000C490968B1FBF0F5284600F0AFFB08B135
:1003B000012070BD102C07D200222146501E00F0F3
:1003C0000EF80548046001E00120F2E70020F0E7A4
:1003D00018000020000000201400002070472DE9C4
:1003E000F05F80460D461646002700F00FFF0746D7
:1003F00039462A46334601F00700C0F1070ABAF130
:10040000040F02D94FF0040A01E0C0F1070AD146F7
:1004100000F1040ABAF1070F02D24FF0000A01E01E
:10042000A0F1030AD4464FF0010A0AFA09FAAAF128
:10043000010A0AEA020A0AFA0CFA4FF0010B0BFA57
:100440000CFBABF1010B0BEA030B4AEA0B04214650
:10045000404600F0E3FEBDE8F09F000000BF00F062
:100460000702064B19684FF6FF031940044B0B4374
:1004700043EA0221014B196000BF70470CED00E018
:100480000000FA0570B504460D460CB9012070BD98
:100490005A48006800F00700A8420ED2574800688A
:1004A00020F007002843554908600846006800F01E
:1004B0000700A84201D00120E9E7207800F00200FF
:1004C00002281DD1207800F00400042805D14C48F2
:1004D000406840F4E0604A494860207800F0080035
:1004E000082805D14648406840F4605044494860B7
:1004F0004348406820F0F000A16808434049486044
:10050000207800F0010078B36068012806D13C48EB
:10051000006800F4003090B90120B8E76068022854
:1005200006D13748006800F0007040B90120AEE7FE
:100530003348006800F0020008B90120A7E73048FE
:10054000406820F00300616808432D494860FFF7C8
:10055000F9FE064609E0FFF7F5FE801B41F28831FF
:10056000884202D9032092E707E02548406800F05E
:100570000C006168B0EB810FEDD12048006800F0FD
:100580000700A8420ED91D48006820F00700284344
:100590001A4908600846006800F00700A84201D028
:1005A000012074E7207800F00400042807D11448E3
:1005B000406820F4E060E168084311494860207811
:1005C00000F00800082808D10D48406820F4605069
:1005D000216940EAC1000A49486000F019F8084959
:1005E0004968C1F30311074A515CC84006490860D5
:1005F00006480068FFF7CCFE002048E700200240D4
:1006000000100240721200080000002014000020B8
:1006100070B500210022002400230020134D6968DA
:1006200001F00C05F5B1042D02D0082D19D101E01F
:100630000F4819E00F4DC1F38346AB5D01F48035DF
:1006400055B10A4D6D68C5F340450B4E725D084DBE
:100650005D43B5FBF2F402E0084D03FB05F42046D0
:1006600002E000BF024800BF00BF70BD00100240A2
:1006700000127A008A1200089A12000800093D0050
:10068000F8B504460CB90120F8BD207800F001004F
:10069000002878D0F848406800F00C0004280CD0FE
:1006A000F548406800F00C00082811D1F248406875
:1006B00000F48030B0F5803F0AD1EF48006800F4C4
:1006C000003000285FD0606800285CD10120DBE7A3
:1006D00000BF6068B0F5803F06D1E748006840F48D
:1006E0008030E549086028E0606858B9E248006851
:1006F00020F48030E04908600846006820F480203B
:1007000008601AE06068B0F5A02F0BD1DA480068E5
:1007100040F48020D84908600846006840F48030E2
:1007200008600AE0D448006820F48030D2490860AC
:100730000846006820F48020086000BF606888B127
:10074000FFF700FE054606E0FFF7FCFD401B6428AE
:1007500001D9032098E7C848006800F40030002859
:10076000F2D010E0FFF7EEFD054606E0FFF7EAFDE8
:10077000401B642801D9032086E7BF48006800F4C5
:1007800000300028F2D1207800F00200022857D172
:10079000B948406800F00C0050B1B748406800F01C
:1007A0000C00082818D1B448406800F4803098B98B
:1007B000B148006800F0020020B12069012801D092
:1007C000012061E7AC48006820F0F800616940EA68
:1007D000C100A949086033E02069E8B10120A749B8
:1007E0000860FFF7AFFD054606E0FFF7ABFD401BD5
:1007F000022801D9032047E79F48006800F0020063
:100800000028F2D09C48006820F0F800616940EAB6
:10081000C1009949086013E0002098490860FFF77B
:1008200091FD054606E0FFF78DFD401B022801D92A
:10083000032029E79048006800F002000028F2D168
:10084000207800F0080008282DD1A069B8B1012057
:100850008B490860FFF776FD054606E0FFF772FD5D
:10086000401B022801D903200EE78348406A00F0AC
:1008700002000028F2D0012000F042FB13E000202B
:100880007F490860FFF75EFD054606E0FFF75AFD69
:10089000401B022801D90320F6E67748406A00F0A1
:1008A00002000028F2D1207800F00400042873D15F
:1008B00000277148C06900F0805070B900BF6E48D1
:1008C000C06940F080506C49C8610846C06900F0BA
:1008D0008050009000BF00BF01276A48006800F404
:1008E0008070B0B96748006840F48070654908605E
:1008F000FFF728FD054606E0FFF724FD401B6428AE
:1009000001D90320C0E65F48006800F48070002829
:10091000F2D000BFE068012806D15748006A40F0D5
:1009200001005549086227E0E06858B95248006A5A
:1009300020F00100504908620846006A20F00400D7
:10094000086219E0E06805280BD14B48006A40F0C6
:100950000400494908620846006A40F00100086244
:100960000AE04548006A20F0010043490862084651
:10097000006A20F00400086200BFE068A0B1FFF741
:10098000E1FC054609E0FFF7DDFC401B41F2883140
:10099000884202D9032077E622E03748006A00F057
:1009A00002000028EFD012E0FFF7CCFC054608E07B
:1009B000FFF7C8FC401B41F28831884201D903206F
:1009C00062E62D48006A00F002000028F0D1012FF5
:1009D00005D12948C06920F080502749C86100BF6F
:1009E000E069C8B32448406800F00C00082860D0D3
:1009F000E069022848D1002020490866FFF7A2FCE0
:100A0000054606E0FFF79EFC401B022801D90320A3
:100A10003AE61948006800F000700028F2D1206A18
:100A2000B0F5803F07D11448406820F40030A16839
:100A3000084311494860D4E9080108430E49496850
:100A400021F4741108430C49486001200B490866E1
:100A5000FFF778FC054607E03DE0FFF773FC401B1D
:100A6000022801D903200FE60348006800F0007057
:100A70000028F2D02FE000000010024000004242A7
:100A80008004424200700040002014490866FFF7CD
:100A900059FC054606E0FFF755FC401B022801D92A
:100AA0000320F1E50E48006800F000700028F2D144
:100AB00011E0E069012800D1E6E50948466806F43E
:100AC0008031206A814204D106F47011606A81424B
:100AD00001D00120D8E50020D6E500000000424208
:100AE00000100240042808D14FF0E021096941F0CC
:100AF00004014FF0E022116107E04FF0E0210969A5
:100B000021F004014FF0E0221161704770B50446F6
:100B10002546681EB0F1807F01D301200FE0681EDA
:100B20004FF0E02148610F214FF0FF3000F076FBDD
:100B300000204FF0E021886107200861002070BD8F
:100B40007047704701460022002391F8412091F838
:100B5000423042EA030070472DE9F84F044620680E
:100B600005682068C668206847694FF00009CA46D2
:100B700005F00F09B9F1000F0AD105F0200038B1D6
:100B800006F0200020B1204600F04FFABDE8F88FB3
:100B9000B9F1000F7BD007F0010018B906F490708E
:100BA000002874D005F0010030B106F4807018B14F
:100BB000606C40F00100606405F0040030B107F0A3
:100BC000010018B1606C40F00200606405F00200A2
:100BD00030B107F0010018B1606C40F004006064AF
:100BE00005F0080048B106F0200010B907F0010038
:100BF00018B1606C40F008006064606C002845D05B
:100C000005F0200028B106F0200010B1204600F0C9
:100C10000CFA20684069C0F3801A606C00F008008C
:100C200010B9BAF1000F2CD0204600F0B8F92068B6
:100C3000406900F0400000B300BF00BF21681431DC
:100C400051E8001F21F040002168143141E8000202
:100C5000002AF3D100BFE06B50B17748E16B4863E5
:100C6000E06BFFF717FB88B1E06B416B88470DE045
:100C70002046FFF766FF09E009E02046FFF761FF25
:100C800004E02046FFF75DFF002060647EE7206BF4
:100C9000012877D105F01000002873D006F010006D
:100CA0000028FAD000BF0020009020680068009063
:100CB00020684068009000BF00BF2068406900F0D5
:100CC000400000285FD0E06B006840681FFA80F8A1
:100CD000B8F1000F55D0A08D404552DDA4F82E800C
:100CE000E06B8069202843D000BF00BF21680C3131
:100CF00051E8001F21F4807021680C3141E80002A6
:100D0000002AF3D100BF00BF00BF2168143151E8B1
:100D1000001F21F001002168143141E80002002A7F
:100D2000F3D100BF00BF00BF2168143151E8001F9C
:100D300021F040002168143141E80002002AF3D17B
:100D400000BF202084F842000020206300BF00BFC5
:100D500021680C3151E8001F21F0100021680C318E
:100D600041E80002002AF3D100BFE06BFFF767FA09
:100D700002206063A08DE28D801A81B22046FFF7C9
:100D8000DFFE03E742E0A08DE18D401A1FFA80F8F4
:100D9000E08DD0B3B8F1000F37D000BF00BF21689D
:100DA0000C3151E8001F21F4907021680C3141E8AA
:100DB0000002002AF3D100BF00BF00BF2168143138
:100DC00051E8001F21F001002168143141E80002C0
:100DD000002AF3D100BF202084F8420000202063C5
:100DE00000BF00BF21680C3151E8001F21F0100046
:100DF00021680C3141E80002002AF3D100BF022033
:100E0000606341462046FFF79BFEBFE605F0800089
:100E100030B106F0800018B1204600F0A4F9B5E624
:100E200005F0400030B106F0400018B1204600F057
:100E3000ECF8ABE600BFA9E68B0F000870B50446DE
:100E40000D46164694F8420020280BD105B10EB984
:100E5000012070BD0020206332462946204600F064
:100E600062F9F6E70220F4E71D4A0168914236D1A3
:100E70001C49098801F4004189BB1A49098801F419
:100E8000804171B1184909780A2903D00021154A17
:100E9000118024E01349098841F40041114A11806E
:100EA0001DE0114909780D2906D10E49098841F440
:100EB00080410C4A118012E00B490978094A1288D6
:100EC000C2F30D02094B995406490988491C054A89
:100ED000118011460988C72901DD00211180704762
:100EE000003801400C0000200E0000201C000020F3
:100EF000704700BFFEE700BFFEE770477047000085
:100F000008B508490968C9084FF47A72B1FBF2F1D3
:100F10004143009100BF00BF00994A1E0092002982
:100F2000F9D108BD00000020704730B58FB00546EC
:100F30000024012005900004069000200790022064
:100F40000C90C1030D910E9505A8FFF799FB04467F
:100F50000CB100BFFEE70F2000900220019000209E
:100F600002904FF4806003900020049002216846B4
:100F7000FFF788FA04460CB100BFFEE70FB030BDA2
:100F800010B5FFF7E5F910BD704770B505466C6AFE
:100F90000020E085E0842046FFF7D3FD70BD00BF50
:100FA00000BF02680C3252E8002F22F490710268F0
:100FB0000C3242E80013002BF3D100BF00BF00BF8A
:100FC0000268143252E8002F22F001010268143244
:100FD00042E80013002BF3D100BF016B01290ED1B1
:100FE00000BF00BF02680C3252E8002F22F010014F
:100FF00002680C3242E80013002BF3D100BF20211D
:1010000080F8421000210163704710B50446206843
:10101000C06820F040002168C860202084F84100AA
:101020002046FFF765FF002010BDF8B5044694F890
:101030004200222875D1A068B0F5805F0CD12069EC
:1010400050B90025A66A20684068C0F308003080C7
:10105000A06A801CA06215E0A56A0026A068B0F511
:10106000805F03D0A06828B9206918B9206840685B
:10107000287004E02068406800F07F002870A06AB3
:10108000401CA062E08D401E80B2E085002846D161
:101090002068C06820F020002168C8602068C0680F
:1010A00020F480702168C8602068406920F0010049
:1010B00021684861202084F8420000206063206B92
:1010C000012826D10020206300BF00BF21680C3119
:1010D00051E8001F21F0100021680C3141E80002A6
:1010E000002AF3D100BF2068006800F0100010282B
:1010F0000AD100BF0020009020680068009020689E
:101100004068009000BF00BFA18D2046FFF718FD8A
:1011100002E02046FFF7A8FE0020F8BD01E0002015
:10112000FBE70220F9E710B5034699629A85DA8554
:1011300000205864222083F84200186928B11868FA
:10114000C06840F480701C68E0601868406940F036
:1011500001001C6860611868C06840F020001C68CD
:10116000E060002010BD014691F84100212828D1FF
:101170008868B0F5805F0BD1086948B90A6A1088A1
:10118000C0F308000B685860086A801C086205E01C
:101190000B6A581C086218780B685860C88C401E8F
:1011A00080B2C88458B90868C06820F080000B6815
:1011B000D8600868C06840F040000B68D860002024
:1011C00070470220FCE7000010B500240C48FFF730
:1011D000C3FC00BF01E0641C00BF0948FFF7B2FC7C
:1011E0002028F8D100BF002401E0641C00BF0122C8
:1011F00004490348FFF722FE0028F6D100BF10BDC6
:10120000E40000200E00002000BFFEE70248006856
:10121000C0F30220704700000CED00E010B500287C
:1012200004DB0A07130E054A135406E00A07140EDE
:10123000034A00F00F031B1FD45410BD00E400E06C
:1012400018ED00E000BF704710B504460420FFF71A
:1012500049FC0148046010BD04000020FFF784F839
:101260004820FFF7F1FF4FF4E010FFF75EFE00BFEC
:10127000FEE7000000000000000001020304060772
:101280000809000000000102030402030405060728
:1012900008090A0B0C0D0E0F10100102BC120008F9
:1012A000000000201C00000028010008D8120008DF
:1012B0001C00002074070000440100080024F40012
:1012C000000000000000000000000000000000001E
:0812D000100000000100000005
:04000005080000ED02
:00000001FF
